{
  "_format": "hh-sol-artifact-1",
  "contractName": "RealIDPunks",
  "sourceName": "contracts/RealIDPunks.sol",
  "abi": [
    {
      "inputs": [
        {
          "internalType": "address",
          "name": "registrar",
          "type": "address"
        }
      ],
      "stateMutability": "nonpayable",
      "type": "constructor"
    },
    {
      "anonymous": false,
      "inputs": [
        {
          "indexed": true,
          "internalType": "address",
          "name": "owner",
          "type": "address"
        },
        {
          "indexed": true,
          "internalType": "address",
          "name": "approved",
          "type": "address"
        },
        {
          "indexed": true,
          "internalType": "uint256",
          "name": "tokenId",
          "type": "uint256"
        }
      ],
      "name": "Approval",
      "type": "event"
    },
    {
      "anonymous": false,
      "inputs": [
        {
          "indexed": true,
          "internalType": "address",
          "name": "owner",
          "type": "address"
        },
        {
          "indexed": true,
          "internalType": "address",
          "name": "operator",
          "type": "address"
        },
        {
          "indexed": false,
          "internalType": "bool",
          "name": "approved",
          "type": "bool"
        }
      ],
      "name": "ApprovalForAll",
      "type": "event"
    },
    {
      "anonymous": false,
      "inputs": [
        {
          "indexed": true,
          "internalType": "address",
          "name": "previousOwner",
          "type": "address"
        },
        {
          "indexed": true,
          "internalType": "address",
          "name": "newOwner",
          "type": "address"
        }
      ],
      "name": "OwnershipTransferred",
      "type": "event"
    },
    {
      "anonymous": false,
      "inputs": [
        {
          "indexed": true,
          "internalType": "address",
          "name": "from",
          "type": "address"
        },
        {
          "indexed": true,
          "internalType": "address",
          "name": "to",
          "type": "address"
        },
        {
          "indexed": true,
          "internalType": "uint256",
          "name": "tokenId",
          "type": "uint256"
        }
      ],
      "name": "Transfer",
      "type": "event"
    },
    {
      "inputs": [
        {
          "internalType": "address",
          "name": "to",
          "type": "address"
        },
        {
          "internalType": "uint256",
          "name": "tokenId",
          "type": "uint256"
        }
      ],
      "name": "approve",
      "outputs": [],
      "stateMutability": "nonpayable",
      "type": "function"
    },
    {
      "inputs": [
        {
          "internalType": "address",
          "name": "owner",
          "type": "address"
        }
      ],
      "name": "balanceOf",
      "outputs": [
        {
          "internalType": "uint256",
          "name": "",
          "type": "uint256"
        }
      ],
      "stateMutability": "view",
      "type": "function"
    },
    {
      "inputs": [
        {
          "internalType": "bytes32",
          "name": "eyeColor",
          "type": "bytes32"
        },
        {
          "internalType": "uint256",
          "name": "eyeIndex",
          "type": "uint256"
        },
        {
          "internalType": "bytes32[]",
          "name": "eyeProof",
          "type": "bytes32[]"
        },
        {
          "internalType": "bytes32",
          "name": "hairColor",
          "type": "bytes32"
        },
        {
          "internalType": "uint256",
          "name": "hairIndex",
          "type": "uint256"
        },
        {
          "internalType": "bytes32[]",
          "name": "hairProof",
          "type": "bytes32[]"
        }
      ],
      "name": "createToken",
      "outputs": [
        {
          "internalType": "uint256",
          "name": "",
          "type": "uint256"
        }
      ],
      "stateMutability": "nonpayable",
      "type": "function"
    },
    {
      "inputs": [
        {
          "internalType": "uint256",
          "name": "tokenId",
          "type": "uint256"
        }
      ],
      "name": "getApproved",
      "outputs": [
        {
          "internalType": "address",
          "name": "",
          "type": "address"
        }
      ],
      "stateMutability": "view",
      "type": "function"
    },
    {
      "inputs": [],
      "name": "getMaxMints",
      "outputs": [
        {
          "internalType": "uint256",
          "name": "",
          "type": "uint256"
        }
      ],
      "stateMutability": "view",
      "type": "function"
    },
    {
      "inputs": [
        {
          "internalType": "address",
          "name": "toCheck",
          "type": "address"
        }
      ],
      "name": "hasRealID",
      "outputs": [
        {
          "internalType": "bool",
          "name": "realid",
          "type": "bool"
        }
      ],
      "stateMutability": "view",
      "type": "function"
    },
    {
      "inputs": [
        {
          "internalType": "address",
          "name": "owner",
          "type": "address"
        },
        {
          "internalType": "address",
          "name": "operator",
          "type": "address"
        }
      ],
      "name": "isApprovedForAll",
      "outputs": [
        {
          "internalType": "bool",
          "name": "",
          "type": "bool"
        }
      ],
      "stateMutability": "view",
      "type": "function"
    },
    {
      "inputs": [],
      "name": "name",
      "outputs": [
        {
          "internalType": "string",
          "name": "",
          "type": "string"
        }
      ],
      "stateMutability": "view",
      "type": "function"
    },
    {
      "inputs": [],
      "name": "owner",
      "outputs": [
        {
          "internalType": "address",
          "name": "",
          "type": "address"
        }
      ],
      "stateMutability": "view",
      "type": "function"
    },
    {
      "inputs": [
        {
          "internalType": "uint256",
          "name": "tokenId",
          "type": "uint256"
        }
      ],
      "name": "ownerOf",
      "outputs": [
        {
          "internalType": "address",
          "name": "",
          "type": "address"
        }
      ],
      "stateMutability": "view",
      "type": "function"
    },
    {
      "inputs": [],
      "name": "renounceOwnership",
      "outputs": [],
      "stateMutability": "nonpayable",
      "type": "function"
    },
    {
      "inputs": [
        {
          "internalType": "address",
          "name": "from",
          "type": "address"
        },
        {
          "internalType": "address",
          "name": "to",
          "type": "address"
        },
        {
          "internalType": "uint256",
          "name": "tokenId",
          "type": "uint256"
        }
      ],
      "name": "safeTransferFrom",
      "outputs": [],
      "stateMutability": "nonpayable",
      "type": "function"
    },
    {
      "inputs": [
        {
          "internalType": "address",
          "name": "from",
          "type": "address"
        },
        {
          "internalType": "address",
          "name": "to",
          "type": "address"
        },
        {
          "internalType": "uint256",
          "name": "tokenId",
          "type": "uint256"
        },
        {
          "internalType": "bytes",
          "name": "_data",
          "type": "bytes"
        }
      ],
      "name": "safeTransferFrom",
      "outputs": [],
      "stateMutability": "nonpayable",
      "type": "function"
    },
    {
      "inputs": [
        {
          "internalType": "address",
          "name": "operator",
          "type": "address"
        },
        {
          "internalType": "bool",
          "name": "approved",
          "type": "bool"
        }
      ],
      "name": "setApprovalForAll",
      "outputs": [],
      "stateMutability": "nonpayable",
      "type": "function"
    },
    {
      "inputs": [
        {
          "internalType": "uint256",
          "name": "newMax",
          "type": "uint256"
        }
      ],
      "name": "setMaxMints",
      "outputs": [],
      "stateMutability": "nonpayable",
      "type": "function"
    },
    {
      "inputs": [
        {
          "internalType": "bytes4",
          "name": "interfaceId",
          "type": "bytes4"
        }
      ],
      "name": "supportsInterface",
      "outputs": [
        {
          "internalType": "bool",
          "name": "",
          "type": "bool"
        }
      ],
      "stateMutability": "view",
      "type": "function"
    },
    {
      "inputs": [],
      "name": "symbol",
      "outputs": [
        {
          "internalType": "string",
          "name": "",
          "type": "string"
        }
      ],
      "stateMutability": "view",
      "type": "function"
    },
    {
      "inputs": [
        {
          "internalType": "uint256",
          "name": "tokenId",
          "type": "uint256"
        }
      ],
      "name": "tokenURI",
      "outputs": [
        {
          "internalType": "string",
          "name": "",
          "type": "string"
        }
      ],
      "stateMutability": "view",
      "type": "function"
    },
    {
      "inputs": [
        {
          "internalType": "address",
          "name": "from",
          "type": "address"
        },
        {
          "internalType": "address",
          "name": "to",
          "type": "address"
        },
        {
          "internalType": "uint256",
          "name": "tokenId",
          "type": "uint256"
        }
      ],
      "name": "transferFrom",
      "outputs": [],
      "stateMutability": "nonpayable",
      "type": "function"
    },
    {
      "inputs": [
        {
          "internalType": "address",
          "name": "newOwner",
          "type": "address"
        }
      ],
      "name": "transferOwnership",
      "outputs": [],
      "stateMutability": "nonpayable",
      "type": "function"
    },
    {
      "inputs": [
        {
          "internalType": "address",
          "name": "_registrarAddress",
          "type": "address"
        }
      ],
      "name": "updateRegistrarAddress",
      "outputs": [],
      "stateMutability": "nonpayable",
      "type": "function"
    },
    {
      "inputs": [
        {
          "internalType": "address",
          "name": "addy",
          "type": "address"
        },
        {
          "internalType": "bytes32[]",
          "name": "proof",
          "type": "bytes32[]"
        },
        {
          "internalType": "bytes32",
          "name": "leaf",
          "type": "bytes32"
        },
        {
          "internalType": "uint256",
          "name": "index",
          "type": "uint256"
        }
      ],
      "name": "verify",
      "outputs": [
        {
          "internalType": "bool",
          "name": "",
          "type": "bool"
        }
      ],
      "stateMutability": "view",
      "type": "function"
    }
  ],
  "bytecode": "0x60806040523480156200001157600080fd5b50604051620061ec380380620061ec8339818101604052810190620000379190620022d3565b806040518060400160405280600d81526020017f5265616c2049442050756e6b73000000000000000000000000000000000000008152506040518060400160405280600481526020017f52494450000000000000000000000000000000000000000000000000000000008152508160009080519060200190620000bc9291906200220c565b508060019080519060200190620000d59291906200220c565b50505033600860006101000a81548173ffffffffffffffffffffffffffffffffffffffff021916908373ffffffffffffffffffffffffffffffffffffffff16021790555080600760006101000a81548173ffffffffffffffffffffffffffffffffffffffff021916908373ffffffffffffffffffffffffffffffffffffffff160217905550506200017b6200016f6200213e60201b60201c565b6200214660201b60201c565b6004600e81905550610191600b60007f590e9e4a912fb1984227f09b1d812c93b301adc163cb575154f7d52cfe8bb53b60001b815260200190815260200160002060007f8ee37134a1b2cde2722dc3dfc9ea7dd5532f0f5315332c5fe318c9ee82ef9f5d60001b815260200190815260200160002081905550610126600b60007f590e9e4a912fb1984227f09b1d812c93b301adc163cb575154f7d52cfe8bb53b60001b815260200190815260200160002060007fee464e601fd0268eaead379183b2d2afabf5f7a8de9d550760719b5a0ee9540f60001b8152602001908152602001600020819055506101fa600b60007f590e9e4a912fb1984227f09b1d812c93b301adc163cb575154f7d52cfe8bb53b60001b815260200190815260200160002060007fce308852879c333772c97fed60dac3115e4b3dda5317d737c7258f8827ded7db60001b8152602001908152602001600020819055506101c0600b60007f590e9e4a912fb1984227f09b1d812c93b301adc163cb575154f7d52cfe8bb53b60001b815260200190815260200160002060007fb9b40cf41732b7f05adeffe3ccfcad97450b58ff57c57f7f260bd29e29d4da3060001b8152602001908152602001600020819055506098600b60007f590e9e4a912fb1984227f09b1d812c93b301adc163cb575154f7d52cfe8bb53b60001b815260200190815260200160002060007fc235ed5de47735c7549ddc110f2dec3cead7210ed701e771b6534e10642755e060001b815260200190815260200160002081905550604a600b60007f590e9e4a912fb1984227f09b1d812c93b301adc163cb575154f7d52cfe8bb53b60001b815260200190815260200160002060007f3178209fb28574d78b05ae2a24ec41d4ef5e305665cce250c3927f15ae6f826060001b815260200190815260200160002081905550610176600b60007f590e9e4a912fb1984227f09b1d812c93b301adc163cb575154f7d52cfe8bb53b60001b815260200190815260200160002060007fe5d5c95b7fc4252f852a08511b1c2ded57690052769a15744f1121f8aacd1f6a60001b81526020019081526020016000208190555061036c600b60007ff622cb33345c788156faf42ab844ee0239e46aa61faaa8fe05cea2d4a58f179960001b815260200190815260200160002060007f8ee37134a1b2cde2722dc3dfc9ea7dd5532f0f5315332c5fe318c9ee82ef9f5d60001b8152602001908152602001600020819055506102f1600b60007ff622cb33345c788156faf42ab844ee0239e46aa61faaa8fe05cea2d4a58f179960001b815260200190815260200160002060007fee464e601fd0268eaead379183b2d2afabf5f7a8de9d550760719b5a0ee9540f60001b81526020019081526020016000208190555061018a600b60007ff622cb33345c788156faf42ab844ee0239e46aa61faaa8fe05cea2d4a58f179960001b815260200190815260200160002060007fce308852879c333772c97fed60dac3115e4b3dda5317d737c7258f8827ded7db60001b8152602001908152602001600020819055506102ea600b60007ff622cb33345c788156faf42ab844ee0239e46aa61faaa8fe05cea2d4a58f179960001b815260200190815260200160002060007fb9b40cf41732b7f05adeffe3ccfcad97450b58ff57c57f7f260bd29e29d4da3060001b815260200190815260200160002081905550610368600b60007ff622cb33345c788156faf42ab844ee0239e46aa61faaa8fe05cea2d4a58f179960001b815260200190815260200160002060007fc235ed5de47735c7549ddc110f2dec3cead7210ed701e771b6534e10642755e060001b8152602001908152602001600020819055506090600b60007ff622cb33345c788156faf42ab844ee0239e46aa61faaa8fe05cea2d4a58f179960001b815260200190815260200160002060007f3178209fb28574d78b05ae2a24ec41d4ef5e305665cce250c3927f15ae6f826060001b81526020019081526020016000208190555061010c600b60007ff622cb33345c788156faf42ab844ee0239e46aa61faaa8fe05cea2d4a58f179960001b815260200190815260200160002060007fe5d5c95b7fc4252f852a08511b1c2ded57690052769a15744f1121f8aacd1f6a60001b8152602001908152602001600020819055506094600b60007f74e0201c91edc3f737cae9f79169bef4bb4863908dd7b1b01677dc9923ea47ff60001b815260200190815260200160002060007f8ee37134a1b2cde2722dc3dfc9ea7dd5532f0f5315332c5fe318c9ee82ef9f5d60001b8152602001908152602001600020819055506096600b60007f74e0201c91edc3f737cae9f79169bef4bb4863908dd7b1b01677dc9923ea47ff60001b815260200190815260200160002060007fee464e601fd0268eaead379183b2d2afabf5f7a8de9d550760719b5a0ee9540f60001b8152602001908152602001600020819055506093600b60007f74e0201c91edc3f737cae9f79169bef4bb4863908dd7b1b01677dc9923ea47ff60001b815260200190815260200160002060007fce308852879c333772c97fed60dac3115e4b3dda5317d737c7258f8827ded7db60001b8152602001908152602001600020819055506093600b60007f74e0201c91edc3f737cae9f79169bef4bb4863908dd7b1b01677dc9923ea47ff60001b815260200190815260200160002060007fb9b40cf41732b7f05adeffe3ccfcad97450b58ff57c57f7f260bd29e29d4da3060001b8152602001908152602001600020819055506096600b60007f74e0201c91edc3f737cae9f79169bef4bb4863908dd7b1b01677dc9923ea47ff60001b815260200190815260200160002060007fc235ed5de47735c7549ddc110f2dec3cead7210ed701e771b6534e10642755e060001b815260200190815260200160002081905550604c600b60007f74e0201c91edc3f737cae9f79169bef4bb4863908dd7b1b01677dc9923ea47ff60001b815260200190815260200160002060007f3178209fb28574d78b05ae2a24ec41d4ef5e305665cce250c3927f15ae6f826060001b8152602001908152602001600020819055506096600b60007f74e0201c91edc3f737cae9f79169bef4bb4863908dd7b1b01677dc9923ea47ff60001b815260200190815260200160002060007fe5d5c95b7fc4252f852a08511b1c2ded57690052769a15744f1121f8aacd1f6a60001b81526020019081526020016000208190555060da600b60007f26dbfb5fecd1573e9589cb038879449263b31e665feb754a44c2449903c3737760001b815260200190815260200160002060007f8ee37134a1b2cde2722dc3dfc9ea7dd5532f0f5315332c5fe318c9ee82ef9f5d60001b815260200190815260200160002081905550610144600b60007f26dbfb5fecd1573e9589cb038879449263b31e665feb754a44c2449903c3737760001b815260200190815260200160002060007fee464e601fd0268eaead379183b2d2afabf5f7a8de9d550760719b5a0ee9540f60001b81526020019081526020016000208190555060d8600b60007f26dbfb5fecd1573e9589cb038879449263b31e665feb754a44c2449903c3737760001b815260200190815260200160002060007fce308852879c333772c97fed60dac3115e4b3dda5317d737c7258f8827ded7db60001b81526020019081526020016000208190555061016e600b60007f26dbfb5fecd1573e9589cb038879449263b31e665feb754a44c2449903c3737760001b815260200190815260200160002060007fb9b40cf41732b7f05adeffe3ccfcad97450b58ff57c57f7f260bd29e29d4da3060001b81526020019081526020016000208190555060d2600b60007f26dbfb5fecd1573e9589cb038879449263b31e665feb754a44c2449903c3737760001b815260200190815260200160002060007fc235ed5de47735c7549ddc110f2dec3cead7210ed701e771b6534e10642755e060001b81526020019081526020016000208190555060cc600b60007f26dbfb5fecd1573e9589cb038879449263b31e665feb754a44c2449903c3737760001b815260200190815260200160002060007f3178209fb28574d78b05ae2a24ec41d4ef5e305665cce250c3927f15ae6f826060001b815260200190815260200160002081905550610171600b60007f26dbfb5fecd1573e9589cb038879449263b31e665feb754a44c2449903c3737760001b815260200190815260200160002060007fe5d5c95b7fc4252f852a08511b1c2ded57690052769a15744f1121f8aacd1f6a60001b81526020019081526020016000208190555060d9600b60007f67cb5406ee2b35ae6a7403fd8101a4a6c2a268f7576c1d81ad2f8c33b8a9765760001b815260200190815260200160002060007f8ee37134a1b2cde2722dc3dfc9ea7dd5532f0f5315332c5fe318c9ee82ef9f5d60001b815260200190815260200160002081905550610151600b60007f67cb5406ee2b35ae6a7403fd8101a4a6c2a268f7576c1d81ad2f8c33b8a9765760001b815260200190815260200160002060007fee464e601fd0268eaead379183b2d2afabf5f7a8de9d550760719b5a0ee9540f60001b81526020019081526020016000208190555060d5600b60007f67cb5406ee2b35ae6a7403fd8101a4a6c2a268f7576c1d81ad2f8c33b8a9765760001b815260200190815260200160002060007fce308852879c333772c97fed60dac3115e4b3dda5317d737c7258f8827ded7db60001b815260200190815260200160002081905550610106600b60007f67cb5406ee2b35ae6a7403fd8101a4a6c2a268f7576c1d81ad2f8c33b8a9765760001b815260200190815260200160002060007fb9b40cf41732b7f05adeffe3ccfcad97450b58ff57c57f7f260bd29e29d4da3060001b8152602001908152602001600020819055506013600b60007f67cb5406ee2b35ae6a7403fd8101a4a6c2a268f7576c1d81ad2f8c33b8a9765760001b815260200190815260200160002060007f20267d43ebb72aafa205d4526c1847f3588284e2623da5bcdca555767390976f60001b81526020019081526020016000208190555060de600b60007f67cb5406ee2b35ae6a7403fd8101a4a6c2a268f7576c1d81ad2f8c33b8a9765760001b815260200190815260200160002060007fc235ed5de47735c7549ddc110f2dec3cead7210ed701e771b6534e10642755e060001b81526020019081526020016000208190555060d1600b60007f67cb5406ee2b35ae6a7403fd8101a4a6c2a268f7576c1d81ad2f8c33b8a9765760001b815260200190815260200160002060007f3178209fb28574d78b05ae2a24ec41d4ef5e305665cce250c3927f15ae6f826060001b815260200190815260200160002081905550610155600b60007f67cb5406ee2b35ae6a7403fd8101a4a6c2a268f7576c1d81ad2f8c33b8a9765760001b815260200190815260200160002060007fe5d5c95b7fc4252f852a08511b1c2ded57690052769a15744f1121f8aacd1f6a60001b8152602001908152602001600020819055506001600a60007f590e9e4a912fb1984227f09b1d812c93b301adc163cb575154f7d52cfe8bb53b60001b815260200190815260200160002060007f8ee37134a1b2cde2722dc3dfc9ea7dd5532f0f5315332c5fe318c9ee82ef9f5d60001b815260200190815260200160002081905550610192600a60007f590e9e4a912fb1984227f09b1d812c93b301adc163cb575154f7d52cfe8bb53b60001b815260200190815260200160002060007fee464e601fd0268eaead379183b2d2afabf5f7a8de9d550760719b5a0ee9540f60001b8152602001908152602001600020819055506102b7600a60007f590e9e4a912fb1984227f09b1d812c93b301adc163cb575154f7d52cfe8bb53b60001b815260200190815260200160002060007fce308852879c333772c97fed60dac3115e4b3dda5317d737c7258f8827ded7db60001b8152602001908152602001600020819055506104b1600a60007f590e9e4a912fb1984227f09b1d812c93b301adc163cb575154f7d52cfe8bb53b60001b815260200190815260200160002060007fb9b40cf41732b7f05adeffe3ccfcad97450b58ff57c57f7f260bd29e29d4da3060001b815260200190815260200160002081905550610671600a60007f590e9e4a912fb1984227f09b1d812c93b301adc163cb575154f7d52cfe8bb53b60001b815260200190815260200160002060007fc235ed5de47735c7549ddc110f2dec3cead7210ed701e771b6534e10642755e060001b815260200190815260200160002081905550610709600a60007f590e9e4a912fb1984227f09b1d812c93b301adc163cb575154f7d52cfe8bb53b60001b815260200190815260200160002060007f3178209fb28574d78b05ae2a24ec41d4ef5e305665cce250c3927f15ae6f826060001b815260200190815260200160002081905550610753600a60007f590e9e4a912fb1984227f09b1d812c93b301adc163cb575154f7d52cfe8bb53b60001b815260200190815260200160002060007fe5d5c95b7fc4252f852a08511b1c2ded57690052769a15744f1121f8aacd1f6a60001b8152602001908152602001600020819055506108c9600a60007ff622cb33345c788156faf42ab844ee0239e46aa61faaa8fe05cea2d4a58f179960001b815260200190815260200160002060007f8ee37134a1b2cde2722dc3dfc9ea7dd5532f0f5315332c5fe318c9ee82ef9f5d60001b815260200190815260200160002081905550610c35600a60007ff622cb33345c788156faf42ab844ee0239e46aa61faaa8fe05cea2d4a58f179960001b815260200190815260200160002060007fee464e601fd0268eaead379183b2d2afabf5f7a8de9d550760719b5a0ee9540f60001b815260200190815260200160002081905550610f26600a60007ff622cb33345c788156faf42ab844ee0239e46aa61faaa8fe05cea2d4a58f179960001b815260200190815260200160002060007fce308852879c333772c97fed60dac3115e4b3dda5317d737c7258f8827ded7db60001b8152602001908152602001600020819055506110b0600a60007ff622cb33345c788156faf42ab844ee0239e46aa61faaa8fe05cea2d4a58f179960001b815260200190815260200160002060007fb9b40cf41732b7f05adeffe3ccfcad97450b58ff57c57f7f260bd29e29d4da3060001b81526020019081526020016000208190555061139a600a60007ff622cb33345c788156faf42ab844ee0239e46aa61faaa8fe05cea2d4a58f179960001b815260200190815260200160002060007fc235ed5de47735c7549ddc110f2dec3cead7210ed701e771b6534e10642755e060001b815260200190815260200160002081905550611702600a60007ff622cb33345c788156faf42ab844ee0239e46aa61faaa8fe05cea2d4a58f179960001b815260200190815260200160002060007f3178209fb28574d78b05ae2a24ec41d4ef5e305665cce250c3927f15ae6f826060001b815260200190815260200160002081905550611792600a60007ff622cb33345c788156faf42ab844ee0239e46aa61faaa8fe05cea2d4a58f179960001b815260200190815260200160002060007fe5d5c95b7fc4252f852a08511b1c2ded57690052769a15744f1121f8aacd1f6a60001b81526020019081526020016000208190555061189e600a60007f74e0201c91edc3f737cae9f79169bef4bb4863908dd7b1b01677dc9923ea47ff60001b815260200190815260200160002060007f8ee37134a1b2cde2722dc3dfc9ea7dd5532f0f5315332c5fe318c9ee82ef9f5d60001b815260200190815260200160002081905550611932600a60007f74e0201c91edc3f737cae9f79169bef4bb4863908dd7b1b01677dc9923ea47ff60001b815260200190815260200160002060007fee464e601fd0268eaead379183b2d2afabf5f7a8de9d550760719b5a0ee9540f60001b8152602001908152602001600020819055506119c8600a60007f74e0201c91edc3f737cae9f79169bef4bb4863908dd7b1b01677dc9923ea47ff60001b815260200190815260200160002060007fce308852879c333772c97fed60dac3115e4b3dda5317d737c7258f8827ded7db60001b815260200190815260200160002081905550611a5b600a60007f74e0201c91edc3f737cae9f79169bef4bb4863908dd7b1b01677dc9923ea47ff60001b815260200190815260200160002060007fb9b40cf41732b7f05adeffe3ccfcad97450b58ff57c57f7f260bd29e29d4da3060001b815260200190815260200160002081905550611aee600a60007f74e0201c91edc3f737cae9f79169bef4bb4863908dd7b1b01677dc9923ea47ff60001b815260200190815260200160002060007fc235ed5de47735c7549ddc110f2dec3cead7210ed701e771b6534e10642755e060001b815260200190815260200160002081905550611b84600a60007f74e0201c91edc3f737cae9f79169bef4bb4863908dd7b1b01677dc9923ea47ff60001b815260200190815260200160002060007f3178209fb28574d78b05ae2a24ec41d4ef5e305665cce250c3927f15ae6f826060001b815260200190815260200160002081905550611bd0600a60007f74e0201c91edc3f737cae9f79169bef4bb4863908dd7b1b01677dc9923ea47ff60001b815260200190815260200160002060007fe5d5c95b7fc4252f852a08511b1c2ded57690052769a15744f1121f8aacd1f6a60001b815260200190815260200160002081905550611c66600a60007f26dbfb5fecd1573e9589cb038879449263b31e665feb754a44c2449903c3737760001b815260200190815260200160002060007f8ee37134a1b2cde2722dc3dfc9ea7dd5532f0f5315332c5fe318c9ee82ef9f5d60001b815260200190815260200160002081905550611d40600a60007f26dbfb5fecd1573e9589cb038879449263b31e665feb754a44c2449903c3737760001b815260200190815260200160002060007fee464e601fd0268eaead379183b2d2afabf5f7a8de9d550760719b5a0ee9540f60001b815260200190815260200160002081905550611e84600a60007f26dbfb5fecd1573e9589cb038879449263b31e665feb754a44c2449903c3737760001b815260200190815260200160002060007fce308852879c333772c97fed60dac3115e4b3dda5317d737c7258f8827ded7db60001b815260200190815260200160002081905550611f5c600a60007f26dbfb5fecd1573e9589cb038879449263b31e665feb754a44c2449903c3737760001b815260200190815260200160002060007fb9b40cf41732b7f05adeffe3ccfcad97450b58ff57c57f7f260bd29e29d4da3060001b8152602001908152602001600020819055506120ca600a60007f26dbfb5fecd1573e9589cb038879449263b31e665feb754a44c2449903c3737760001b815260200190815260200160002060007fc235ed5de47735c7549ddc110f2dec3cead7210ed701e771b6534e10642755e060001b81526020019081526020016000208190555061219c600a60007f26dbfb5fecd1573e9589cb038879449263b31e665feb754a44c2449903c3737760001b815260200190815260200160002060007f3178209fb28574d78b05ae2a24ec41d4ef5e305665cce250c3927f15ae6f826060001b815260200190815260200160002081905550612268600a60007f26dbfb5fecd1573e9589cb038879449263b31e665feb754a44c2449903c3737760001b815260200190815260200160002060007fe5d5c95b7fc4252f852a08511b1c2ded57690052769a15744f1121f8aacd1f6a60001b8152602001908152602001600020819055506123d9600a60007f67cb5406ee2b35ae6a7403fd8101a4a6c2a268f7576c1d81ad2f8c33b8a9765760001b815260200190815260200160002060007f8ee37134a1b2cde2722dc3dfc9ea7dd5532f0f5315332c5fe318c9ee82ef9f5d60001b8152602001908152602001600020819055506124b2600a60007f67cb5406ee2b35ae6a7403fd8101a4a6c2a268f7576c1d81ad2f8c33b8a9765760001b815260200190815260200160002060007fee464e601fd0268eaead379183b2d2afabf5f7a8de9d550760719b5a0ee9540f60001b815260200190815260200160002081905550612603600a60007f67cb5406ee2b35ae6a7403fd8101a4a6c2a268f7576c1d81ad2f8c33b8a9765760001b815260200190815260200160002060007fce308852879c333772c97fed60dac3115e4b3dda5317d737c7258f8827ded7db60001b8152602001908152602001600020819055506126d8600a60007f67cb5406ee2b35ae6a7403fd8101a4a6c2a268f7576c1d81ad2f8c33b8a9765760001b815260200190815260200160002060007fb9b40cf41732b7f05adeffe3ccfcad97450b58ff57c57f7f260bd29e29d4da3060001b8152602001908152602001600020819055506128bc600a60007f67cb5406ee2b35ae6a7403fd8101a4a6c2a268f7576c1d81ad2f8c33b8a9765760001b815260200190815260200160002060007f20267d43ebb72aafa205d4526c1847f3588284e2623da5bcdca555767390976f60001b8152602001908152602001600020819055506127de600a60007f67cb5406ee2b35ae6a7403fd8101a4a6c2a268f7576c1d81ad2f8c33b8a9765760001b815260200190815260200160002060007fc235ed5de47735c7549ddc110f2dec3cead7210ed701e771b6534e10642755e060001b8152602001908152602001600020819055506128cf600a60007f67cb5406ee2b35ae6a7403fd8101a4a6c2a268f7576c1d81ad2f8c33b8a9765760001b815260200190815260200160002060007f3178209fb28574d78b05ae2a24ec41d4ef5e305665cce250c3927f15ae6f826060001b8152602001908152602001600020819055506129a0600a60007f67cb5406ee2b35ae6a7403fd8101a4a6c2a268f7576c1d81ad2f8c33b8a9765760001b815260200190815260200160002060007fe5d5c95b7fc4252f852a08511b1c2ded57690052769a15744f1121f8aacd1f6a60001b81526020019081526020016000208190555050620023b2565b600033905090565b6000600960009054906101000a900473ffffffffffffffffffffffffffffffffffffffff16905081600960006101000a81548173ffffffffffffffffffffffffffffffffffffffff021916908373ffffffffffffffffffffffffffffffffffffffff1602179055508173ffffffffffffffffffffffffffffffffffffffff168173ffffffffffffffffffffffffffffffffffffffff167f8be0079c531659141344cd1fd0a4f28419497f9722a3daafe3b4186f6b6457e060405160405180910390a35050565b8280546200221a9062002333565b90600052602060002090601f0160209004810192826200223e57600085556200228a565b82601f106200225957805160ff19168380011785556200228a565b828001600101855582156200228a579182015b82811115620022895782518255916020019190600101906200226c565b5b5090506200229991906200229d565b5090565b5b80821115620022b85760008160009055506001016200229e565b5090565b600081519050620022cd8162002398565b92915050565b600060208284031215620022e657600080fd5b6000620022f684828501620022bc565b91505092915050565b60006200230c8262002313565b9050919050565b600073ffffffffffffffffffffffffffffffffffffffff82169050919050565b600060028204905060018216806200234c57607f821691505b6020821081141562002363576200236262002369565b5b50919050565b7f4e487b7100000000000000000000000000000000000000000000000000000000600052602260045260246000fd5b620023a381620022ff565b8114620023af57600080fd5b50565b613e2a80620023c26000396000f3fe608060405234801561001057600080fd5b50600436106101425760003560e01c806379c9cb7b116100b8578063af94ff191161007c578063af94ff1914610375578063b88d4fde14610391578063c87b56dd146103ad578063e985e9c5146103dd578063f2fde38b1461040d578063fadde0641461042957610142565b806379c9cb7b146102d15780637aae9894146102ed5780638da5cb5b1461031d57806395d89b411461033b578063a22cb4651461035957610142565b806323b872dd1161010a57806323b872dd1461021157806342842e0e1461022d5780635bdf01c8146102495780636352211e1461026757806370a0823114610297578063715018a6146102c757610142565b806301ffc9a71461014757806306fdde0314610177578063081812fc14610195578063095ea7b3146101c55780631f2e6184146101e1575b600080fd5b610161600480360381019061015c919061295f565b610459565b60405161016e9190612f96565b60405180910390f35b61017f61053b565b60405161018c9190612fb1565b60405180910390f35b6101af60048036038101906101aa91906129b1565b6105cd565b6040516101bc9190612f2f565b60405180910390f35b6101df60048036038101906101da9190612818565b610652565b005b6101fb60048036038101906101f691906128a6565b61076a565b60405161020891906132d3565b60405180910390f35b61022b60048036038101906102269190612697565b610b2b565b005b61024760048036038101906102429190612697565b610b8b565b005b610251610bab565b60405161025e91906132d3565b60405180910390f35b610281600480360381019061027c91906129b1565b610bb5565b60405161028e9190612f2f565b60405180910390f35b6102b160048036038101906102ac9190612632565b610c67565b6040516102be91906132d3565b60405180910390f35b6102cf610d1f565b005b6102eb60048036038101906102e691906129b1565b610da7565b005b61030760048036038101906103029190612761565b610e2d565b6040516103149190612f96565b60405180910390f35b610325611067565b6040516103329190612f2f565b60405180910390f35b610343611091565b6040516103509190612fb1565b60405180910390f35b610373600480360381019061036e91906127dc565b611123565b005b61038f600480360381019061038a9190612632565b611139565b005b6103ab60048036038101906103a691906126e6565b61120d565b005b6103c760048036038101906103c291906129b1565b61126f565b6040516103d49190612fb1565b60405180910390f35b6103f760048036038101906103f2919061265b565b6113c1565b6040516104049190612f96565b60405180910390f35b61042760048036038101906104229190612632565b611455565b005b610443600480360381019061043e9190612632565b61154d565b6040516104509190612f96565b60405180910390f35b60007f80ac58cd000000000000000000000000000000000000000000000000000000007bffffffffffffffffffffffffffffffffffffffffffffffffffffffff1916827bffffffffffffffffffffffffffffffffffffffffffffffffffffffff1916148061052457507f5b5e139f000000000000000000000000000000000000000000000000000000007bffffffffffffffffffffffffffffffffffffffffffffffffffffffff1916827bffffffffffffffffffffffffffffffffffffffffffffffffffffffff1916145b80610534575061053382611601565b5b9050919050565b60606000805461054a90613539565b80601f016020809104026020016040519081016040528092919081815260200182805461057690613539565b80156105c35780601f10610598576101008083540402835291602001916105c3565b820191906000526020600020905b8154815290600101906020018083116105a657829003601f168201915b5050505050905090565b60006105d88261166b565b610617576040517f08c379a000000000000000000000000000000000000000000000000000000000815260040161060e906131d3565b60405180910390fd5b6004600083815260200190815260200160002060009054906101000a900473ffffffffffffffffffffffffffffffffffffffff169050919050565b600061065d82610bb5565b90508073ffffffffffffffffffffffffffffffffffffffff168373ffffffffffffffffffffffffffffffffffffffff1614156106ce576040517f08c379a00000000000000000000000000000000000000000000000000000000081526004016106c590613233565b60405180910390fd5b8073ffffffffffffffffffffffffffffffffffffffff166106ed6116d7565b73ffffffffffffffffffffffffffffffffffffffff16148061071c575061071b816107166116d7565b6113c1565b5b61075b576040517f08c379a000000000000000000000000000000000000000000000000000000000815260040161075290613113565b60405180910390fd5b61076583836116df565b505050565b6000600760009054906101000a900473ffffffffffffffffffffffffffffffffffffffff1673ffffffffffffffffffffffffffffffffffffffff1663b62a2fb3336040518263ffffffff1660e01b81526004016107c79190612f2f565b60206040518083038186803b1580156107df57600080fd5b505afa1580156107f3573d6000803e3d6000fd5b505050506040513d601f19601f820116820180604052508101906108179190612854565b610856576040517f08c379a000000000000000000000000000000000000000000000000000000000815260040161084d90613073565b60405180910390fd5b6000600d60003373ffffffffffffffffffffffffffffffffffffffff1673ffffffffffffffffffffffffffffffffffffffff168152602001908152602001600020549050600e5481106108de576040517f08c379a00000000000000000000000000000000000000000000000000000000081526004016108d590613053565b60405180910390fd5b600115156108ee33888b8b610e2d565b151514610930576040517f08c379a0000000000000000000000000000000000000000000000000000000008152600401610927906130f3565b60405180910390fd5b6001151561094033858888610e2d565b151514610982576040517f08c379a000000000000000000000000000000000000000000000000000000000815260040161097990613273565b60405180910390fd5b6000600a60008a815260200190815260200160002060008781526020019081526020016000205490506000600b60008b815260200190815260200160002060008881526020019081526020016000205490506000600c60008c81526020019081526020016000206000898152602001908152602001600020549050818110610a3f576040517f08c379a0000000000000000000000000000000000000000000000000000000008152600401610a36906132b3565b60405180910390fd5b600060018285610a4f91906133be565b610a5991906133be565b9050600081604051602001610a6e9190612efe565b6040516020818303038152906040529050610a893383611798565b610a938282611972565b600186610aa091906133be565b600d60003373ffffffffffffffffffffffffffffffffffffffff1673ffffffffffffffffffffffffffffffffffffffff16815260200190815260200160002081905550600183610af091906133be565b600c60008f815260200190815260200160002060008c8152602001908152602001600020819055508196505050505050509695505050505050565b610b3c610b366116d7565b826119e6565b610b7b576040517f08c379a0000000000000000000000000000000000000000000000000000000008152600401610b7290613253565b60405180910390fd5b610b86838383611ac4565b505050565b610ba68383836040518060200160405280600081525061120d565b505050565b6000600e54905090565b6000806002600084815260200190815260200160002060009054906101000a900473ffffffffffffffffffffffffffffffffffffffff169050600073ffffffffffffffffffffffffffffffffffffffff168173ffffffffffffffffffffffffffffffffffffffff161415610c5e576040517f08c379a0000000000000000000000000000000000000000000000000000000008152600401610c5590613153565b60405180910390fd5b80915050919050565b60008073ffffffffffffffffffffffffffffffffffffffff168273ffffffffffffffffffffffffffffffffffffffff161415610cd8576040517f08c379a0000000000000000000000000000000000000000000000000000000008152600401610ccf90613133565b60405180910390fd5b600360008373ffffffffffffffffffffffffffffffffffffffff1673ffffffffffffffffffffffffffffffffffffffff168152602001908152602001600020549050919050565b610d276116d7565b73ffffffffffffffffffffffffffffffffffffffff16610d45611067565b73ffffffffffffffffffffffffffffffffffffffff1614610d9b576040517f08c379a0000000000000000000000000000000000000000000000000000000008152600401610d92906131f3565b60405180910390fd5b610da56000611d2b565b565b610daf6116d7565b73ffffffffffffffffffffffffffffffffffffffff16610dcd611067565b73ffffffffffffffffffffffffffffffffffffffff1614610e23576040517f08c379a0000000000000000000000000000000000000000000000000000000008152600401610e1a906131f3565b60405180910390fd5b80600e8190555050565b600080600760009054906101000a900473ffffffffffffffffffffffffffffffffffffffff1673ffffffffffffffffffffffffffffffffffffffff16631da0b8fc876040518263ffffffff1660e01b8152600401610e8b9190612f2f565b60206040518083038186803b158015610ea357600080fd5b505afa158015610eb7573d6000803e3d6000fd5b505050506040513d601f19601f82011682018060405250810190610edb919061287d565b9050600084905060005b8651811015611057576000878281518110610f29577f4e487b7100000000000000000000000000000000000000000000000000000000600052603260045260246000fd5b602002602001015190506000600287610f4291906135f9565b1415610fc05760028382604051602001610f5d929190612e97565b604051602081830303815290604052604051610f799190612ec3565b602060405180830381855afa158015610f96573d6000803e3d6000fd5b5050506040513d601f19601f82011682018060405250810190610fb9919061287d565b9250611034565b60028184604051602001610fd5929190612e97565b604051602081830303815290604052604051610ff19190612ec3565b602060405180830381855afa15801561100e573d6000803e3d6000fd5b5050506040513d601f19601f82011682018060405250810190611031919061287d565b92505b6002866110419190613414565b955050808061104f9061359c565b915050610ee5565b5081811492505050949350505050565b6000600960009054906101000a900473ffffffffffffffffffffffffffffffffffffffff16905090565b6060600180546110a090613539565b80601f01602080910402602001604051908101604052809291908181526020018280546110cc90613539565b80156111195780601f106110ee57610100808354040283529160200191611119565b820191906000526020600020905b8154815290600101906020018083116110fc57829003601f168201915b5050505050905090565b61113561112e6116d7565b8383611df1565b5050565b600860009054906101000a900473ffffffffffffffffffffffffffffffffffffffff1673ffffffffffffffffffffffffffffffffffffffff163373ffffffffffffffffffffffffffffffffffffffff16146111c9576040517f08c379a00000000000000000000000000000000000000000000000000000000081526004016111c090613293565b60405180910390fd5b80600760006101000a81548173ffffffffffffffffffffffffffffffffffffffff021916908373ffffffffffffffffffffffffffffffffffffffff16021790555050565b61121e6112186116d7565b836119e6565b61125d576040517f08c379a000000000000000000000000000000000000000000000000000000000815260040161125490613253565b60405180910390fd5b61126984848484611f5e565b50505050565b606061127a8261166b565b6112b9576040517f08c379a00000000000000000000000000000000000000000000000000000000081526004016112b0906131b3565b60405180910390fd5b60006006600084815260200190815260200160002080546112d990613539565b80601f016020809104026020016040519081016040528092919081815260200182805461130590613539565b80156113525780601f1061132757610100808354040283529160200191611352565b820191906000526020600020905b81548152906001019060200180831161133557829003601f168201915b505050505090506000611363611fba565b90506000815114156113795781925050506113bc565b6000825111156113ae578082604051602001611396929190612eda565b604051602081830303815290604052925050506113bc565b6113b784611fd1565b925050505b919050565b6000600560008473ffffffffffffffffffffffffffffffffffffffff1673ffffffffffffffffffffffffffffffffffffffff16815260200190815260200160002060008373ffffffffffffffffffffffffffffffffffffffff1673ffffffffffffffffffffffffffffffffffffffff16815260200190815260200160002060009054906101000a900460ff16905092915050565b61145d6116d7565b73ffffffffffffffffffffffffffffffffffffffff1661147b611067565b73ffffffffffffffffffffffffffffffffffffffff16146114d1576040517f08c379a00000000000000000000000000000000000000000000000000000000081526004016114c8906131f3565b60405180910390fd5b600073ffffffffffffffffffffffffffffffffffffffff168173ffffffffffffffffffffffffffffffffffffffff161415611541576040517f08c379a000000000000000000000000000000000000000000000000000000000815260040161153890612ff3565b60405180910390fd5b61154a81611d2b565b50565b6000600760009054906101000a900473ffffffffffffffffffffffffffffffffffffffff1673ffffffffffffffffffffffffffffffffffffffff1663b62a2fb3836040518263ffffffff1660e01b81526004016115aa9190612f2f565b60206040518083038186803b1580156115c257600080fd5b505afa1580156115d6573d6000803e3d6000fd5b505050506040513d601f19601f820116820180604052508101906115fa9190612854565b9050919050565b60007f01ffc9a7000000000000000000000000000000000000000000000000000000007bffffffffffffffffffffffffffffffffffffffffffffffffffffffff1916827bffffffffffffffffffffffffffffffffffffffffffffffffffffffff1916149050919050565b60008073ffffffffffffffffffffffffffffffffffffffff166002600084815260200190815260200160002060009054906101000a900473ffffffffffffffffffffffffffffffffffffffff1673ffffffffffffffffffffffffffffffffffffffff1614159050919050565b600033905090565b816004600083815260200190815260200160002060006101000a81548173ffffffffffffffffffffffffffffffffffffffff021916908373ffffffffffffffffffffffffffffffffffffffff160217905550808273ffffffffffffffffffffffffffffffffffffffff1661175283610bb5565b73ffffffffffffffffffffffffffffffffffffffff167f8c5be1e5ebec7d5bd14f71427d1e84f3dd0314c0f7b2291e5b200ac8c7c3b92560405160405180910390a45050565b600073ffffffffffffffffffffffffffffffffffffffff168273ffffffffffffffffffffffffffffffffffffffff161415611808576040517f08c379a00000000000000000000000000000000000000000000000000000000081526004016117ff90613193565b60405180910390fd5b6118118161166b565b15611851576040517f08c379a000000000000000000000000000000000000000000000000000000000815260040161184890613033565b60405180910390fd5b61185d60008383612078565b6001600360008473ffffffffffffffffffffffffffffffffffffffff1673ffffffffffffffffffffffffffffffffffffffff16815260200190815260200160002060008282546118ad91906133be565b92505081905550816002600083815260200190815260200160002060006101000a81548173ffffffffffffffffffffffffffffffffffffffff021916908373ffffffffffffffffffffffffffffffffffffffff160217905550808273ffffffffffffffffffffffffffffffffffffffff16600073ffffffffffffffffffffffffffffffffffffffff167fddf252ad1be2c89b69c2b068fc378daa952ba7f163c4a11628f55a4df523b3ef60405160405180910390a461196e6000838361207d565b5050565b61197b8261166b565b6119ba576040517f08c379a00000000000000000000000000000000000000000000000000000000081526004016119b190613173565b60405180910390fd5b806006600084815260200190815260200160002090805190602001906119e19291906123e9565b505050565b60006119f18261166b565b611a30576040517f08c379a0000000000000000000000000000000000000000000000000000000008152600401611a27906130d3565b60405180910390fd5b6000611a3b83610bb5565b90508073ffffffffffffffffffffffffffffffffffffffff168473ffffffffffffffffffffffffffffffffffffffff161480611aaa57508373ffffffffffffffffffffffffffffffffffffffff16611a92846105cd565b73ffffffffffffffffffffffffffffffffffffffff16145b80611abb5750611aba81856113c1565b5b91505092915050565b8273ffffffffffffffffffffffffffffffffffffffff16611ae482610bb5565b73ffffffffffffffffffffffffffffffffffffffff1614611b3a576040517f08c379a0000000000000000000000000000000000000000000000000000000008152600401611b3190613013565b60405180910390fd5b600073ffffffffffffffffffffffffffffffffffffffff168273ffffffffffffffffffffffffffffffffffffffff161415611baa576040517f08c379a0000000000000000000000000000000000000000000000000000000008152600401611ba190613093565b60405180910390fd5b611bb5838383612078565b611bc06000826116df565b6001600360008573ffffffffffffffffffffffffffffffffffffffff1673ffffffffffffffffffffffffffffffffffffffff1681526020019081526020016000206000828254611c109190613445565b925050819055506001600360008473ffffffffffffffffffffffffffffffffffffffff1673ffffffffffffffffffffffffffffffffffffffff1681526020019081526020016000206000828254611c6791906133be565b92505081905550816002600083815260200190815260200160002060006101000a81548173ffffffffffffffffffffffffffffffffffffffff021916908373ffffffffffffffffffffffffffffffffffffffff160217905550808273ffffffffffffffffffffffffffffffffffffffff168473ffffffffffffffffffffffffffffffffffffffff167fddf252ad1be2c89b69c2b068fc378daa952ba7f163c4a11628f55a4df523b3ef60405160405180910390a4611d2683838361207d565b505050565b6000600960009054906101000a900473ffffffffffffffffffffffffffffffffffffffff16905081600960006101000a81548173ffffffffffffffffffffffffffffffffffffffff021916908373ffffffffffffffffffffffffffffffffffffffff1602179055508173ffffffffffffffffffffffffffffffffffffffff168173ffffffffffffffffffffffffffffffffffffffff167f8be0079c531659141344cd1fd0a4f28419497f9722a3daafe3b4186f6b6457e060405160405180910390a35050565b8173ffffffffffffffffffffffffffffffffffffffff168373ffffffffffffffffffffffffffffffffffffffff161415611e60576040517f08c379a0000000000000000000000000000000000000000000000000000000008152600401611e57906130b3565b60405180910390fd5b80600560008573ffffffffffffffffffffffffffffffffffffffff1673ffffffffffffffffffffffffffffffffffffffff16815260200190815260200160002060008473ffffffffffffffffffffffffffffffffffffffff1673ffffffffffffffffffffffffffffffffffffffff16815260200190815260200160002060006101000a81548160ff0219169083151502179055508173ffffffffffffffffffffffffffffffffffffffff168373ffffffffffffffffffffffffffffffffffffffff167f17307eab39ab6107e8899845ad3d59bd9653f200f220920489ca2b5937696c3183604051611f519190612f96565b60405180910390a3505050565b611f69848484611ac4565b611f7584848484612082565b611fb4576040517f08c379a0000000000000000000000000000000000000000000000000000000008152600401611fab90612fd3565b60405180910390fd5b50505050565b606060405180602001604052806000815250905090565b6060611fdc8261166b565b61201b576040517f08c379a000000000000000000000000000000000000000000000000000000000815260040161201290613213565b60405180910390fd5b6000612025611fba565b905060008151116120455760405180602001604052806000815250612070565b8061204f84612219565b604051602001612060929190612eda565b6040516020818303038152906040525b915050919050565b505050565b505050565b60006120a38473ffffffffffffffffffffffffffffffffffffffff166123c6565b1561220c578373ffffffffffffffffffffffffffffffffffffffff1663150b7a026120cc6116d7565b8786866040518563ffffffff1660e01b81526004016120ee9493929190612f4a565b602060405180830381600087803b15801561210857600080fd5b505af192505050801561213957506040513d601f19601f820116820180604052508101906121369190612988565b60015b6121bc573d8060008114612169576040519150601f19603f3d011682016040523d82523d6000602084013e61216e565b606091505b506000815114156121b4576040517f08c379a00000000000000000000000000000000000000000000000000000000081526004016121ab90612fd3565b60405180910390fd5b805181602001fd5b63150b7a0260e01b7bffffffffffffffffffffffffffffffffffffffffffffffffffffffff1916817bffffffffffffffffffffffffffffffffffffffffffffffffffffffff191614915050612211565b600190505b949350505050565b60606000821415612261576040518060400160405280600181526020017f300000000000000000000000000000000000000000000000000000000000000081525090506123c1565b600082905060005b6000821461229357808061227c9061359c565b915050600a8261228c9190613414565b9150612269565b60008167ffffffffffffffff8111156122d5577f4e487b7100000000000000000000000000000000000000000000000000000000600052604160045260246000fd5b6040519080825280601f01601f1916602001820160405280156123075781602001600182028036833780820191505090505b5090505b600085146123ba576001826123209190613445565b9150600a8561232f91906135f9565b603061233b91906133be565b60f81b818381518110612377577f4e487b7100000000000000000000000000000000000000000000000000000000600052603260045260246000fd5b60200101907effffffffffffffffffffffffffffffffffffffffffffffffffffffffffffff1916908160001a905350600a856123b39190613414565b945061230b565b8093505050505b919050565b6000808273ffffffffffffffffffffffffffffffffffffffff163b119050919050565b8280546123f590613539565b90600052602060002090601f016020900481019282612417576000855561245e565b82601f1061243057805160ff191683800117855561245e565b8280016001018555821561245e579182015b8281111561245d578251825591602001919060010190612442565b5b50905061246b919061246f565b5090565b5b80821115612488576000816000905550600101612470565b5090565b600061249f61249a84613313565b6132ee565b905080838252602082019050828560208602820111156124be57600080fd5b60005b858110156124ee57816124d4888261259f565b8452602084019350602083019250506001810190506124c1565b5050509392505050565b600061250b6125068461333f565b6132ee565b90508281526020810184848401111561252357600080fd5b61252e8482856134f7565b509392505050565b60008135905061254581613d81565b92915050565b600082601f83011261255c57600080fd5b813561256c84826020860161248c565b91505092915050565b60008135905061258481613d98565b92915050565b60008151905061259981613d98565b92915050565b6000813590506125ae81613daf565b92915050565b6000815190506125c381613daf565b92915050565b6000813590506125d881613dc6565b92915050565b6000815190506125ed81613dc6565b92915050565b600082601f83011261260457600080fd5b81356126148482602086016124f8565b91505092915050565b60008135905061262c81613ddd565b92915050565b60006020828403121561264457600080fd5b600061265284828501612536565b91505092915050565b6000806040838503121561266e57600080fd5b600061267c85828601612536565b925050602061268d85828601612536565b9150509250929050565b6000806000606084860312156126ac57600080fd5b60006126ba86828701612536565b93505060206126cb86828701612536565b92505060406126dc8682870161261d565b9150509250925092565b600080600080608085870312156126fc57600080fd5b600061270a87828801612536565b945050602061271b87828801612536565b935050604061272c8782880161261d565b925050606085013567ffffffffffffffff81111561274957600080fd5b612755878288016125f3565b91505092959194509250565b6000806000806080858703121561277757600080fd5b600061278587828801612536565b945050602085013567ffffffffffffffff8111156127a257600080fd5b6127ae8782880161254b565b93505060406127bf8782880161259f565b92505060606127d08782880161261d565b91505092959194509250565b600080604083850312156127ef57600080fd5b60006127fd85828601612536565b925050602061280e85828601612575565b9150509250929050565b6000806040838503121561282b57600080fd5b600061283985828601612536565b925050602061284a8582860161261d565b9150509250929050565b60006020828403121561286657600080fd5b60006128748482850161258a565b91505092915050565b60006020828403121561288f57600080fd5b600061289d848285016125b4565b91505092915050565b60008060008060008060c087890312156128bf57600080fd5b60006128cd89828a0161259f565b96505060206128de89828a0161261d565b955050604087013567ffffffffffffffff8111156128fb57600080fd5b61290789828a0161254b565b945050606061291889828a0161259f565b935050608061292989828a0161261d565b92505060a087013567ffffffffffffffff81111561294657600080fd5b61295289828a0161254b565b9150509295509295509295565b60006020828403121561297157600080fd5b600061297f848285016125c9565b91505092915050565b60006020828403121561299a57600080fd5b60006129a8848285016125de565b91505092915050565b6000602082840312156129c357600080fd5b60006129d18482850161261d565b91505092915050565b6129e381613479565b82525050565b6129f28161348b565b82525050565b612a09612a0482613497565b6135e5565b82525050565b6000612a1a82613370565b612a248185613386565b9350612a34818560208601613506565b612a3d816136e6565b840191505092915050565b6000612a5382613370565b612a5d8185613397565b9350612a6d818560208601613506565b80840191505092915050565b6000612a848261337b565b612a8e81856133a2565b9350612a9e818560208601613506565b612aa7816136e6565b840191505092915050565b6000612abd8261337b565b612ac781856133b3565b9350612ad7818560208601613506565b80840191505092915050565b6000612af06032836133a2565b9150612afb826136f7565b604082019050919050565b6000612b136026836133a2565b9150612b1e82613746565b604082019050919050565b6000612b366025836133a2565b9150612b4182613795565b604082019050919050565b6000612b59601c836133a2565b9150612b64826137e4565b602082019050919050565b6000612b7c601b836133a2565b9150612b878261380d565b602082019050919050565b6000612b9f600b836133a2565b9150612baa82613836565b602082019050919050565b6000612bc26024836133a2565b9150612bcd8261385f565b604082019050919050565b6000612be56019836133a2565b9150612bf0826138ae565b602082019050919050565b6000612c08602c836133a2565b9150612c13826138d7565b604082019050919050565b6000612c2b6017836133a2565b9150612c3682613926565b602082019050919050565b6000612c4e6038836133a2565b9150612c598261394f565b604082019050919050565b6000612c71602a836133a2565b9150612c7c8261399e565b604082019050919050565b6000612c946029836133a2565b9150612c9f826139ed565b604082019050919050565b6000612cb7602e836133a2565b9150612cc282613a3c565b604082019050919050565b6000612cda6020836133a2565b9150612ce582613a8b565b602082019050919050565b6000612cfd6031836133a2565b9150612d0882613ab4565b604082019050919050565b6000612d20602c836133a2565b9150612d2b82613b03565b604082019050919050565b6000612d436005836133b3565b9150612d4e82613b52565b600582019050919050565b6000612d666020836133a2565b9150612d7182613b7b565b602082019050919050565b6000612d89602f836133a2565b9150612d9482613ba4565b604082019050919050565b6000612dac6021836133a2565b9150612db782613bf3565b604082019050919050565b6000612dcf6031836133a2565b9150612dda82613c42565b604082019050919050565b6000612df26018836133a2565b9150612dfd82613c91565b602082019050919050565b6000612e156036836133b3565b9150612e2082613cba565b603682019050919050565b6000612e38600a836133a2565b9150612e4382613d09565b602082019050919050565b6000612e5b6038836133a2565b9150612e6682613d32565b604082019050919050565b612e7a816134ed565b82525050565b612e91612e8c826134ed565b6135ef565b82525050565b6000612ea382856129f8565b602082019150612eb382846129f8565b6020820191508190509392505050565b6000612ecf8284612a48565b915081905092915050565b6000612ee68285612ab2565b9150612ef28284612ab2565b91508190509392505050565b6000612f0982612e08565b9150612f158284612e80565b602082019150612f2482612d36565b915081905092915050565b6000602082019050612f4460008301846129da565b92915050565b6000608082019050612f5f60008301876129da565b612f6c60208301866129da565b612f796040830185612e71565b8181036060830152612f8b8184612a0f565b905095945050505050565b6000602082019050612fab60008301846129e9565b92915050565b60006020820190508181036000830152612fcb8184612a79565b905092915050565b60006020820190508181036000830152612fec81612ae3565b9050919050565b6000602082019050818103600083015261300c81612b06565b9050919050565b6000602082019050818103600083015261302c81612b29565b9050919050565b6000602082019050818103600083015261304c81612b4c565b9050919050565b6000602082019050818103600083015261306c81612b6f565b9050919050565b6000602082019050818103600083015261308c81612b92565b9050919050565b600060208201905081810360008301526130ac81612bb5565b9050919050565b600060208201905081810360008301526130cc81612bd8565b9050919050565b600060208201905081810360008301526130ec81612bfb565b9050919050565b6000602082019050818103600083015261310c81612c1e565b9050919050565b6000602082019050818103600083015261312c81612c41565b9050919050565b6000602082019050818103600083015261314c81612c64565b9050919050565b6000602082019050818103600083015261316c81612c87565b9050919050565b6000602082019050818103600083015261318c81612caa565b9050919050565b600060208201905081810360008301526131ac81612ccd565b9050919050565b600060208201905081810360008301526131cc81612cf0565b9050919050565b600060208201905081810360008301526131ec81612d13565b9050919050565b6000602082019050818103600083015261320c81612d59565b9050919050565b6000602082019050818103600083015261322c81612d7c565b9050919050565b6000602082019050818103600083015261324c81612d9f565b9050919050565b6000602082019050818103600083015261326c81612dc2565b9050919050565b6000602082019050818103600083015261328c81612de5565b9050919050565b600060208201905081810360008301526132ac81612e2b565b9050919050565b600060208201905081810360008301526132cc81612e4e565b9050919050565b60006020820190506132e86000830184612e71565b92915050565b60006132f8613309565b9050613304828261356b565b919050565b6000604051905090565b600067ffffffffffffffff82111561332e5761332d6136b7565b5b602082029050602081019050919050565b600067ffffffffffffffff82111561335a576133596136b7565b5b613363826136e6565b9050602081019050919050565b600081519050919050565b600081519050919050565b600082825260208201905092915050565b600081905092915050565b600082825260208201905092915050565b600081905092915050565b60006133c9826134ed565b91506133d4836134ed565b9250827fffffffffffffffffffffffffffffffffffffffffffffffffffffffffffffffff038211156134095761340861362a565b5b828201905092915050565b600061341f826134ed565b915061342a836134ed565b92508261343a57613439613659565b5b828204905092915050565b6000613450826134ed565b915061345b836134ed565b92508282101561346e5761346d61362a565b5b828203905092915050565b6000613484826134cd565b9050919050565b60008115159050919050565b6000819050919050565b60007fffffffff0000000000000000000000000000000000000000000000000000000082169050919050565b600073ffffffffffffffffffffffffffffffffffffffff82169050919050565b6000819050919050565b82818337600083830152505050565b60005b83811015613524578082015181840152602081019050613509565b83811115613533576000848401525b50505050565b6000600282049050600182168061355157607f821691505b6020821081141561356557613564613688565b5b50919050565b613574826136e6565b810181811067ffffffffffffffff82111715613593576135926136b7565b5b80604052505050565b60006135a7826134ed565b91507fffffffffffffffffffffffffffffffffffffffffffffffffffffffffffffffff8214156135da576135d961362a565b5b600182019050919050565b6000819050919050565b6000819050919050565b6000613604826134ed565b915061360f836134ed565b92508261361f5761361e613659565b5b828206905092915050565b7f4e487b7100000000000000000000000000000000000000000000000000000000600052601160045260246000fd5b7f4e487b7100000000000000000000000000000000000000000000000000000000600052601260045260246000fd5b7f4e487b7100000000000000000000000000000000000000000000000000000000600052602260045260246000fd5b7f4e487b7100000000000000000000000000000000000000000000000000000000600052604160045260246000fd5b6000601f19601f8301169050919050565b7f4552433732313a207472616e7366657220746f206e6f6e20455243373231526560008201527f63656976657220696d706c656d656e7465720000000000000000000000000000602082015250565b7f4f776e61626c653a206e6577206f776e657220697320746865207a65726f206160008201527f6464726573730000000000000000000000000000000000000000000000000000602082015250565b7f4552433732313a207472616e736665722066726f6d20696e636f72726563742060008201527f6f776e6572000000000000000000000000000000000000000000000000000000602082015250565b7f4552433732313a20746f6b656e20616c7265616479206d696e74656400000000600082015250565b7f4d6178206d696e7420616c6c6f77616e63652072656163686564210000000000600082015250565b7f5265616c4944204f6e6c79000000000000000000000000000000000000000000600082015250565b7f4552433732313a207472616e7366657220746f20746865207a65726f2061646460008201527f7265737300000000000000000000000000000000000000000000000000000000602082015250565b7f4552433732313a20617070726f766520746f2063616c6c657200000000000000600082015250565b7f4552433732313a206f70657261746f7220717565727920666f72206e6f6e657860008201527f697374656e7420746f6b656e0000000000000000000000000000000000000000602082015250565b7f45796520636f6c6f722070726f6f66206661696c656421000000000000000000600082015250565b7f4552433732313a20617070726f76652063616c6c6572206973206e6f74206f7760008201527f6e6572206e6f7220617070726f76656420666f7220616c6c0000000000000000602082015250565b7f4552433732313a2062616c616e636520717565727920666f7220746865207a6560008201527f726f206164647265737300000000000000000000000000000000000000000000602082015250565b7f4552433732313a206f776e657220717565727920666f72206e6f6e657869737460008201527f656e7420746f6b656e0000000000000000000000000000000000000000000000602082015250565b7f45524337323155524953746f726167653a2055524920736574206f66206e6f6e60008201527f6578697374656e7420746f6b656e000000000000000000000000000000000000602082015250565b7f4552433732313a206d696e7420746f20746865207a65726f2061646472657373600082015250565b7f45524337323155524953746f726167653a2055524920717565727920666f722060008201527f6e6f6e6578697374656e7420746f6b656e000000000000000000000000000000602082015250565b7f4552433732313a20617070726f76656420717565727920666f72206e6f6e657860008201527f697374656e7420746f6b656e0000000000000000000000000000000000000000602082015250565b7f2e6a736f6e000000000000000000000000000000000000000000000000000000600082015250565b7f4f776e61626c653a2063616c6c6572206973206e6f7420746865206f776e6572600082015250565b7f4552433732314d657461646174613a2055524920717565727920666f72206e6f60008201527f6e6578697374656e7420746f6b656e0000000000000000000000000000000000602082015250565b7f4552433732313a20617070726f76616c20746f2063757272656e74206f776e6560008201527f7200000000000000000000000000000000000000000000000000000000000000602082015250565b7f4552433732313a207472616e736665722063616c6c6572206973206e6f74206f60008201527f776e6572206e6f7220617070726f766564000000000000000000000000000000602082015250565b7f4861697220636f6c6f722070726f6f66206661696c6564210000000000000000600082015250565b7f68747470733a2f2f7265616c2d69642d70756e6b732e73332e616d617a6f6e6160008201527f77732e636f6d2f7265616c696470756e6b732d76312f00000000000000000000602082015250565b7f6f776e6572206f6e6c7900000000000000000000000000000000000000000000600082015250565b7f416c6c205265616c2049442050756e6b73206d61746368696e6720796f75722060008201527f7472616974732068617665206265656e206d696e746564210000000000000000602082015250565b613d8a81613479565b8114613d9557600080fd5b50565b613da18161348b565b8114613dac57600080fd5b50565b613db881613497565b8114613dc357600080fd5b50565b613dcf816134a1565b8114613dda57600080fd5b50565b613de6816134ed565b8114613df157600080fd5b5056fea26469706673582212205d4463280623ae628eb7e8487662ed427355ee409738970d919bc189d3dce06164736f6c63430008040033",
  "linkReferences": {},
  "deployedLinkReferences": {}
}